:100000001AC034C033C032C031C030C02FC02EC07F
:100010002DC02CC02BC0AAC229C028C027C026C012
:1000200025C024C023C066C068C069C06CC06EC053
:1000300072C074C075C011241FBECFE5D4E0DEBF0E
:10004000CDBF10E0A0E6B0E0E2E7F7E002C0059027
:100050000D92A036B107D9F710E0A0E6B0E001C0DC
:100060001D92A738B107E1F7EAD281C3C9CF08953D
:10007000AC9893980895AC9A939A08950F93813011
:1000800019F0823051F515C0662311F4A89A01C009
:10009000A898442311F4A99A01C0A998222311F425
:1000A000AA9A01C0AA98002311F4AB9A16C0AB9883
:1000B00014C0662311F4949A01C09498442311F457
:1000C000959A01C09598222311F4969A01C09698AA
:1000D000002311F4979A01C097980F9108950F93F8
:1000E000E62FFF27E7FDF095E830F105F0F4ED5E2F
:1000F000FF4F099461E040E00BC061E001C060E0A7
:1001000040E021E006C060E041E0FBCF60E041E07C
:1001100020E000E009C060E041E004C060E001C010
:1001200061E040E020E001E0A9DF809176008830C6
:1001300019F41092760005C08F3F19F487E0809380
:10014000760080918500883019F41092850005C0F2
:100150008F3F19F487E0809385000F910895AAE0FE
:10016000B0E0E4EBF0E0B8C24C015B011A013E8361
:100170002D834817590718F42FEF2C8302C031E064
:100180003C838D819E818A159B0518F49FEF9B838C
:1001900002C0E1E0EB837101E818F908F7FE04C042
:1001A000F094E194F108F3940D811E810A191B0962
:1001B00017FF03C0109501951F4FAC9A939AE01654
:1001C000F1060CF46CC098012E193F093A87298773
:1001D0002701559447943C81632E772467FC7094E3
:1001E0006301C80CD91C1A8255C089859A8597FD70
:1001F00017C0892B19F49C81913091F482E06091B1
:1002000085006DDF80918500EB818E0F80938500E6
:10021000A60CB71C29853A852E193F093A872987EC
:1002200081E0609176005BDF809176003C81830FF6
:1002300080937600860C971C8091840090E005C026
:10024000E9E9F3E03197F1F701970097C9F7C601A3
:10025000D7FE04C0882799278C199D09481659068E
:100260004CF48A81882331F45D9BFECF98E39CB9DE
:10027000E1E0EA8329853A85200F311F3A872987F3
:100280009092730080927200B0927500A0927400F8
:10029000C60CD71C8214930409F0A7CF72C0370193
:1002A000601A710AC80162E070E003D26B013B8101
:1002B000432E552447FC5094C2018A0D9B1D9A87FA
:1002C00089871982EC81FF27E7FDF095F887EF8396
:1002D00052C077FC16C06114710419F4FB81F1302F
:1002E00081F481E060917600FADE809176002C81C5
:1002F000820F809376008F819885880E991E601AF0
:10030000710A82E060918500EADE809185009B8120
:10031000890F80938500A40CB51C8091840090E027
:1003200005C0E9E9F3E03197F1F701970097C9F7C4
:1003300089859A8597FF03C0909581959F4FC81630
:10034000D9064CF4E981EE2331F45D9BFECFF8E34E
:10035000FCB921E029836E0C7F1C9092730080927F
:100360007200B0927500A092740089859A85840D00
:10037000951D9A878987ED81FE81AE16BF0609F02B
:10038000A8CF80917700909178002816390659F40B
:100390008091790090917A002D813E81281739074C
:1003A00011F410928600AC9893982A96E2E1B0C1BD
:1003B000EF92FF920F931F9380917B008230E1F1C7
:1003C000833030F4882371F0813009F0CAC00FC047
:1003D000843009F47CC0843008F45DC0853009F0B5
:1003E000C0C0A3C080917C0080938400BAC00091FB
:1003F0007C0040917D0020917E0050917F00E09133
:100400008000F0908100A0918200E0908300942F02
:1004100080E010E0752F60E030E0622B732B5F2DE1
:1004200040E0F0E04E2B5F2B3E2D20E0B0E02A2B89
:100430003B2B802B912B49C081E08093860020913B
:100440007C0040917D00942F80E030E0822B932B44
:1004500090936F0080936E0020917E0040917F000A
:10046000942F80E030E0822B932B90937100809347
:1004700070002091800040918100942F80E030E056
:10048000822B932B909378008093770020918200A9
:100490004091830040C08091720090917300609100
:1004A00074007091750020917C00A0917D00E09116
:1004B0007E00B0917F005A2F40E030E0422B532B5A
:1004C0003B2F20E0F0E02E2B3F2B49DE4AC081E09D
:1004D0008093860080916A0090916B0090936F00EA
:1004E00080936E0080916C0090916D0090937100EC
:1004F0008093700020917C0040917D00942F80E0DB
:1005000030E0822B932B909378008093770020919A
:100510007E0040917F00942F80E030E0822B932B6F
:1005200090937A00809379001CC05D9BFECF8091F0
:100530007200909173008CB95D9BFECF8091720028
:10054000909173009CB95D9BFECF80917400909157
:1005500075008CB95D9BFECF809174009091750001
:100560009CB91F910F91FF90EF9008951F920F92E9
:100570000FB60F9211242F933F934F935F936F9376
:100580007F938F939F93AF93BF93EF93FF935F9B63
:10059000FECFE0916900F0E08CB1E558FF4F808319
:1005A000809169008F5F8093690080916900893034
:1005B00019F4FEDE10926900FF91EF91BF91AF91A7
:1005C0009F918F917F916F915F914F913F912F916B
:1005D0000F900FBE0F901F90189529E933E004C0CB
:1005E000F9013197F1F701970097D1F70895FC01D0
:1005F000DB01208131818D919C91119791838083C2
:100600002D933C9308958AB188698AB980B5866034
:1006100080BD8FE589B910BC089584B38F6184BB18
:1006200085B38F6085BB81B3886F81BB82B3806FD8
:1006300082BBAC98939884E1809384000895E3DFB3
:10064000ECDF83B7856083BF85B5876085BD78940F
:1006500010928600B89AC09A809186008823E1F3B0
:10066000809177009091780090936B0080936A005E
:100670008091790090917A0090936D0080936C0046
:1006800080916E0090916F00609170007091710088
:1006900040917700509178002091790030917A0054
:1006A0005EDDDACF83B7856083BF85B5876085BDA2
:1006B000089597FB092E07260AD077FD04D043D072
:1006C00006D000201AF4709561957F4F0895F6F7D3
:1006D000909581959F4F08952F923F924F925F92F0
:1006E0006F927F928F929F92AF92BF92CF92DF9242
:1006F000EF92FF920F931F93CF93DF93CDB7DEB7A7
:10070000CA1BDB0B0FB6F894DEBF0FBECDBF09943A
:100710002A88398848885F846E847D848C849B8491
:10072000AA84B984C884DF80EE80FD800C811B819F
:10073000AA81B981CE0FD11D0FB6F894DEBF0FBECE
:10074000CDBFED010895AA1BBB1B51E107C0AA1F35
:10075000BB1FA617B70710F0A61BB70B881F991F62
:100760005A95A9F780959095BC01CD010895F8940C
:02077000FFCFB9
:00000001FF
