:100000001AC034C033C032C031C030C02FC02EC07F
:100010002DC02CC02BC07CC229C028C027C026C040
:1000200025C024C023C066C068C069C06CC06EC053
:1000300072C074C075C011241FBECFE5D4E0DEBF0E
:10004000CDBF10E0A0E6B0E0E2EFF6E002C0059020
:100050000D92A036B107D9F710E0A0E6B0E001C0DC
:100060001D92A338B107E1F7BAD241C3C9CF0895B1
:10007000AC9893980895AC9A939A08950F93813011
:1000800019F0823051F515C0662311F4A89A01C009
:10009000A898442311F4A99A01C0A998222311F425
:1000A000AA9A01C0AA98002311F4AB9A16C0AB9883
:1000B00014C0662311F4949A01C09498442311F457
:1000C000959A01C09598222311F4969A01C09698AA
:1000D000002311F4979A01C097980F9108950F93F8
:1000E000E62FFF27E7FDF095E830F105F0F4ED5E2F
:1000F000FF4F099461E040E00BC061E001C060E0A7
:1001000040E021E006C060E041E0FBCF60E041E07C
:1001100020E000E009C060E041E004C060E001C010
:1001200061E040E020E001E0A9DF809172008830CA
:1001300019F41092720005C08F3F19F487E0809384
:10014000720080918100883019F41092810005C0FE
:100150008F3F19F487E0809381000F910895ABE001
:10016000B0E0E4EBF0E078C24C016B015D834C83BE
:100170003F832E834817590718F422242A9402C07B
:10018000222423942E813F812C153D0518F43FEF46
:10019000398302C081E08983EC80FD80E818F9088A
:1001A000F7FE04C0F094E194F108F3940E811F81EE
:1001B0000C191D0917FF03C0109501951F4FAC9A2C
:1001C000939AE016F1060CF46EC0F801EE19FF09DF
:1001D000FB87EA879701359527953B832A83622C15
:1001E000772467FC70945301A80CB91C552488E34C
:1001F000482E52C08A859B8597FD17C0892B19F41C
:1002000091E0291691F482E06091810068DF80918D
:100210008100E9818E0F80938100C60CD71C2A854E
:100220003B852E193F093B872A8781E06091720048
:1002300056DF80917200820D80937200860C971CAD
:100240008091800090E005C0E9E9F3E03197F1F793
:1002500001970097C9F7C501B7FE04C08827992701
:100260008A199B09EA81FB81E817F9072CF45520CC
:1002700009F44CB8552453942A853B85200F311F2F
:100280003B872A8790926F0080926E00D092710017
:10029000C0927000A60CB71C8C819D8188169906AF
:1002A00009F0A8CF6EC03701601A710AC80162E078
:1002B00070E0BFD15B019981492E552447FC5094D1
:1002C000F201EC0DFD1DFB87EA873324222D332735
:1002D00027FD3095398728874EC077FC15C06114FB
:1002E000710419F43981313079F481E06091720040
:1002F000F6DE80917200820D809372008885998568
:10030000880E991E601A710A82E060918100E7DE12
:10031000809181009981890F80938100C40CD51C44
:100320008091800090E005C0E9E9F3E03197F1F7B2
:1003300001970097C9F78A859B8597FF03C0909521
:1003400081959F4FA816B90634F4332011F4E8E3E1
:10035000ECB9332433946E0C7F1C90926F00809222
:100360006E00D0927100C09270002A853B85240DEA
:10037000351D3B872A878E819F81C816D90609F0D3
:10038000ACCF8091730090917400EC81FD81E817EF
:10039000F90759F480917500909176002E813F8184
:1003A0002817390711F410928200AC9893982B9675
:1003B000E2E16EC1EF92FF920F931F93809177005D
:1003C0008230C9F1833030F4882359F0813009F04C
:1003D0009AC00CC0833009F466C0843009F093C021
:1003E0007EC080917800809380008DC0009178005D
:1003F0004091790020917A0050917B00E0917C003F
:10040000F0907D00A0917E00E0907F00942F80E02E
:1004100010E0752F60E030E0622B732B5F2D40E021
:10042000F0E04E2B5F2B3E2D20E0B0E02A2B3B2B43
:10043000802B912B52C081E0809382002091780024
:1004400040917900942F80E030E0822B932B9093A1
:100450006B0080936A0020917A0040917B00942F7A
:1004600080E030E0822B932B90936D0080936C00A2
:1004700020917C0040917D00942F80E030E0822B21
:10048000932B909374008093730020917E00409191
:100490007F00942F80E030E0822B932B90937600A6
:1004A0008093750030C08091780020917900E091B0
:1004B0007A00A0917B006091700070917100522FC2
:1004C00040E090E0482B592B3A2F20E0F0E02E2B13
:1004D0003F2B80916E0090916F0041DE14C05D9BB8
:1004E000FECF80916E0090916F008CB95D9BFECF26
:1004F0009CB95D9BFECF80917000909171008CB98A
:100500005D9BFECF9CB91F910F91FF90EF900895D6
:100510001F920F920FB60F9211242F933F934F9378
:100520005F936F937F938F939F93AF93BF93EF935B
:10053000FF93E0916900F0E08CB1E958FF4F8083B0
:10054000809169008F5F8093690080916900893094
:1005500019F430DF10926900FF91EF91BF91AF91D4
:100560009F918F917F916F915F914F913F912F91CB
:100570000F900FBE0F901F90189529E933E004C02B
:10058000F9013197F1F701970097D1F70895FC0130
:10059000DB01208131818D919C9111979183808322
:1005A0002D933C9308958AB188698AB980B5866095
:1005B00080BD8FE589B910BC089584B38F6184BB79
:1005C00085B38F6085BB81B3886F81BB82B3806F39
:1005D00082BBAC98939884E1809380000895E3DF18
:1005E000ECDF83B7856083BF85B5876085BD789470
:1005F00010928200B89AC09A809182008823E1F319
:1006000080916A0090916B0060916C0070916D0018
:1006100040917300509174002091750030917600E4
:100620009EDDEACF83B7856083BF85B5876085BDD2
:10063000089597FB092E07260AD077FD04D043D0F2
:1006400006D000201AF4709561957F4F0895F6F753
:10065000909581959F4F08952F923F924F925F9270
:100660006F927F928F929F92AF92BF92CF92DF92C2
:10067000EF92FF920F931F93CF93DF93CDB7DEB727
:10068000CA1BDB0B0FB6F894DEBF0FBECDBF0994BB
:100690002A88398848885F846E847D848C849B8412
:1006A000AA84B984C884DF80EE80FD800C811B8120
:1006B000AA81B981CE0FD11D0FB6F894DEBF0FBE4F
:1006C000CDBFED010895AA1BBB1B51E107C0AA1FB6
:1006D000BB1FA617B70710F0A61BB70B881F991FE3
:1006E0005A95A9F780959095BC01CD010895F8948D
:0206F000FFCF3A
:00000001FF
