:1000000022C03CC03BC03AC039C038C037C036C03F
:1000100035C034C033C086C031C030C02FC02EC000
:100020002DC02CC02BC08FC192C194C197C19BC160
:10003000A0C1A3C1A5C1B5C2BBC2E1C218C335C32B
:100040007BC399C39BC311241FBECFE5D4E0DEBFA1
:10005000CDBF10E0A0E6B0E0E2EAF9E002C0059012
:100060000D92A236B107D9F711E0A2E6B0E001C0C7
:100070001D92A633B107E1F7F8D391C4C1CF909197
:10008000D0008091CF00981728F09091D0008091F7
:10009000CF0005C09091D0008091CF00965A981B58
:1000A000892F08952091CF0030E0A901480F511DFC
:1000B000CA016AE570E015D4E6EDF0E0E80FF11D45
:1000C00080810895F8949091CF00980F9093CF007D
:1000D0008091CF006AE5F9D39093CF00789408958A
:1000E000E091D000F0E0EA52FF4F80838091D00091
:1000F0008F5F8093D0008091D0006AE5E6D3909323
:10010000D0009091D0008091CF00981751F4809149
:10011000CF008F5F8093CF008091CF00D6D3909394
:10012000CF0008951F920F920FB60F9211242F93B4
:100130003F934F935F936F937F938F939F93AF936F
:10014000BF93EF93FF935F9BFECF8CB1C9DF5D9BA5
:10015000FECF8AE28CB9FF91EF91BF91AF919F9151
:100160008F917F916F915F914F913F912F910F9060
:100170000FBE0F901F901895FF920F931F93CF9370
:10018000DF939091D0008091CF00981728F00091D4
:10019000D0008091CF0005C00091D0008091CF00A9
:1001A000065A081B033008F47AC05D9BFECF81E637
:1001B0008CB980E077DF823011F55D9BFECF82E65F
:1001C0008CB981E06FDF182F823008F46DC0843065
:1001D00018F497E0F92E03C081E064DF60C05D9BF6
:1001E000FECF83E68CB90F1508F459C05D9BFECF96
:1001F00084E68CB98F2D815055DF833019F081E072
:1002000061DF4DC05D9BFECF85E68CB91093D100B8
:10021000123011F01330E1F482E044DF082F83E064
:1002200041DF382F20E010E0202B312B3093D3001A
:100230002093D20084E036DF082F85E033DF382FAB
:1002400020E010E0202B312B3093D5002093D400F8
:10025000C0E0D0E00F2D10E017C08C2F23DF982FC7
:1002600092959F709A3010F0995C01C0905D5D9BF3
:10027000FECF9CB98F708A3010F0895C01C0805D20
:100280005D9BFECF8CB92196C017D10734F38F2D1B
:1002900019DF5D9BFECF8AE78CB981E001C080E069
:1002A000CDB7DEB7E5E059C383E0F82E98CF5D9B6C
:1002B000FECF8CB908950895AC9893980895AC9AA0
:1002C000939A08950F93813019F0823051F515C03B
:1002D000662311F4A89A01C0A898442311F4A99A9E
:1002E00001C0A998222311F4AA9A01C0AA98002358
:1002F00011F4AB9A16C0AB9814C0662311F4949A0B
:1003000001C09498442311F4959A01C09598222332
:1003100011F4969A01C09698002311F4979A01C09F
:1003200097980F9108950F93282F70E080E090E048
:100330006770707080709070FB016830710530F5E7
:10034000ED5EFF4F0994822F61E040E00FC0822FE5
:1003500061E002C0822F60E040E003C0822F60E0D5
:1003600041E021E004C0822F60E041E020E000E0B5
:100370000CC0822F60E041E006C0822F60E002C026
:10038000822F61E040E020E001E09CDF0F910895C2
:10039000A6E0B0E0EDECF1E0B7C22A011901481780
:1003A000590718F42FEF2A8302C0E1E0EA832616EA
:1003B000370618F4FFEFF98302C021E029837201A8
:1003C000E81AF90AF7FE04C0F094E194F108F394F6
:1003D0008101061B170B17FF03C0109501951F4FD6
:1003E0005C016B01AC9A939AE016F1060CF455C0CF
:1003F000C8018E199F099E838D839A81892E992425
:1004000087FC909434016A0C7B1C42C0ED81FE8114
:10041000F7FD17C0EF2B19F4FA81F13091F482E067
:100420006091320180DF809132012981820F8093B7
:100430003201C80CD91C8D819E818E199F099E8323
:100440008D8381E06091CA006EDF8091CA009A813D
:10045000890F8093CA00A80CB91C8091310190E0EB
:1004600005C0E9E9F3E03197F1F701970097C9F783
:10047000ED81FE81E00FF11FFE83ED837092C600D7
:100480006092C500D092C800C092C700680C791C69
:10049000A414B50409F0BACF5CC0C701801B910B4E
:1004A0009E838D839981892E992487FC90943401B1
:1004B000660E771EEA81FF27E7FDF095FC83EB834C
:1004C00044C08D819E8197FD19C0892B19F49981B3
:1004D0009130A1F481E06091CA0025DF8091CA00CB
:1004E000EA818E0F8093CA008B819C81A80EB91E71
:1004F000ED81FE81E01BF10BFE83ED8382E06091D4
:10050000320111DF80913201F9818F0F8093320126
:10051000C80CD91C8091310190E005C0E9E9F3E0F5
:100520003197F1F701970097C9F78D819E818E0D64
:100530009F1D9E838D83B092C600A092C5007092CD
:10054000C8006092C700680C791CC214D30409F07B
:10055000B8CF8091CB009091CC004816590669F431
:100560008091CD009091CE002816390631F410927A
:1005700035015D9BFECF80E48CB9AC9893982696AC
:10058000E2E1DEC1EF92FF920F931F938091D600BC
:10059000E82FF0E0E830F10508F0F4C0E55EFF4F29
:1005A00009948091D700809331015D9BFECFE8C014
:1005B000109235010091D7004091D8002091D900C8
:1005C0005091DA00E091DB00F090DC00A091DD00BA
:1005D000E090DE00942F80E010E0752F60E030E0C6
:1005E000622B732B5F2D40E0F0E04E2B5F2B3E2DF6
:1005F00020E0B0E02A2B3B2B802B912B54C081E0D4
:10060000809335012091D7004091D800942F80E04D
:1006100030E0822B932B9093C2008093C1002091F5
:10062000D9004091DA00942F80E030E0822B932BA8
:100630009093C4008093C3002091DB004091DC00C4
:10064000942F80E030E0822B932B9093CC0080930A
:10065000CB002091DD004091DE00942F80E030E05F
:10066000822B932B9093CE008093CD008BC0109261
:1006700035018091C5009091C6006091C7007091CE
:10068000C8002091D700A091D800E091D900B09186
:10069000DA005A2F40E030E0422B532B3B2F20E072
:1006A000F0E02E2B3F2B74DE6DC081E0809335018E
:1006B0008091BD009091BE009093C2008093C100D4
:1006C0008091BF009091C0009093C4008093C300BC
:1006D0002091D7004091D800942F80E030E0822B09
:1006E000932B9093CC008093CB002091D900409124
:1006F000DA00942F80E030E0822B932B9093CE0091
:100700008093CD002091CB003091CC008091C5002A
:100710009091C60028173907A9F52091CD00309196
:10072000CE008091C7009091C8002817390751F575
:100730005D9BFECF88E325C08091C5009091C600E7
:100740005D9BFECF8CB98091C5009091C6005D9BEA
:10075000FECF9CB98091C7009091C8005D9BFECFF1
:100760008CB98091C7009091C8005D9BFECF9CB969
:100770005D9BFECF05C05D9BFECF02C05D9BFECFA3
:1007800080E48CB91F910F91FF90EF900895E09154
:10079000C500F091C600A091C700B091C80040917B
:1007A000C5005091C6002091C7003091C800480F85
:1007B000591F260F371FCF01BD01EADD0895AC0197
:1007C0009B015D9BFECF8DE68CB98091C500909119
:1007D000C6006091C7007091C800DADD5D9BFECF56
:1007E0008EE68CB9089529E933E004C0F901319708
:1007F000F1F701970097D1F7089592980895929A8A
:100800000895FC01DB01208131818D919C9111972C
:10081000918380832D933C9308958AB188698AB926
:1008200080B5866080BD8FE189B910BC089584B31E
:100830008F6184BB85B38F6085BB81B3886F81BBBB
:1008400082B3806F82BBAC98939880E18093310132
:1008500008958A9A089583B7856083BF8EB58560B1
:100860008EBD85B5876085BD0895B89AC098D5DFDF
:10087000DEDF8A9AF0DF7894109235017DDC8130DA
:10088000E9F7C09A8091D100813039F0813038F099
:10089000823089F0833091F704C09298EFCF929A1A
:1008A000EDCF6091D4007091D5008091D2009091ED
:1008B000D3006DDFE3CF6091D4007091D5008091BB
:1008C000D2009091D3007BDFD9CF991B79E004C08F
:1008D000991F961708F0961B881F7A95C9F780957F
:1008E000089597FB092E07260AD077FD04D043D040
:1008F00006D000201AF4709561957F4F0895F6F7A1
:10090000909581959F4F08952F923F924F925F92BD
:100910006F927F928F929F92AF92BF92CF92DF920F
:10092000EF92FF920F931F93CF93DF93CDB7DEB774
:10093000CA1BDB0B0FB6F894DEBF0FBECDBF099408
:100940002A88398848885F846E847D848C849B845F
:10095000AA84B984C884DF80EE80FD800C811B816D
:10096000AA81B981CE0FD11D0FB6F894DEBF0FBE9C
:10097000CDBFED010895AA1BBB1B51E107C0AA1F03
:10098000BB1FA617B70710F0A61BB70B881F991F30
:100990005A95A9F780959095BC01CD010895F894DA
:0209A000FFCF87
:0209A2003840DB
:00000001FF
