:100000001AC034C033C032C031C030C02FC02EC07F
:100010002DC02CC02BC078C029C028C027C026C046
:1000200025C024C023C0C2C2C5C2C7C2CAC2CEC274
:10003000D3C2D6C2D8C211241FBECFE5D4E0DEBFE2
:10004000CDBF10E0A0E6B0E0E0EEF9E002C0059020
:100050000D92A236B107D9F711E0A2E6B0E001C0D7
:100060001D92AE3EB107E1F71DD4B8C4C9CF90913F
:10007000770080917600981728F090917700809112
:10008000760005C090917700809176009C54981B73
:10009000892F08952091760030E0A901480F511D65
:1000A000CA0164EB70E03CD4EFE7F0E0E80FF11D2B
:1000B000808108952FB7F89490917600980F9093CF
:1000C00076008091760064EB1FD4909376002FBF6A
:1000D0000895282F8091770090E0019664EB70E0FE
:1000E0001FD4982F80917600891729F45D9BFECF4D
:1000F00081E28CB90895E0917700F0E0E158FF4F7C
:1001000020839093770008951F920F920FB60F925D
:1001100011242F933F934F935F936F937F938F930C
:100120009F93AF93BF93EF93FF938CB1D2DFFF9177
:10013000EF91BF91AF919F918F917F916F915F915F
:100140004F913F912F910F900FBE0F901F901895D8
:10015000CF93DF93C0E0D0E017C08C2F9BDF982FA8
:1001600092959F709A3010F0995C01C0905D5D9BF4
:10017000FECF9CB98F708A3010F0895C01C0805D21
:100180005D9BFECF8CB9219690917700809176008F
:10019000981728F0909177008091760005C0909193
:1001A0007700809176009C54981B892F90E0C817A7
:1001B000D9079CF2DF91CF910895982F80917E000E
:1001C000823B28F05D9BFECF85E08CB90895E091DD
:1001D0007E00F0E0E95CFE4F908380917E008F5FAF
:1001E00080937E000895FF920F931F93CF93DF9328
:1001F0009091770080917600981728F00091770011
:100200008091760005C000917700809176000C54B3
:10021000081B033008F472C080E03CDF823019F024
:1002200081E048DF6BC081E035DF182F843020F497
:10023000823008F068C002C0873018F493E0F92ECD
:1002400008C081E037DF5D9BFECF85E60CC087E00C
:10025000F82E8F2D81501EDF833039F081E02ADFA8
:100260005D9BFECF86E68CB949C0109378001330B1
:1002700051F0143018F4123011F505C0153021F189
:100280001630E9F427C082E005DF082F83E002DFA3
:10029000382F20E010E0202B312B30937A00209370
:1002A000790084E0F7DE082F85E0F4DE382F20E0C7
:1002B00010E0202B312B30937C0020937B00C0E09A
:1002C000D0E00F2D10E00EC080917D005D9BFECF31
:1002D0008CB910C081E0809336010CC08C2FDADE1F
:1002E0006CDF2196C017D107CCF380917D008F5F22
:1002F00080937D008F2DDEDE81E001C080E0CDB7F0
:10030000DEB7E5E049C30730C8F3A1CFE82FF0E03E
:10031000E60FF11DE95CFE4F80810895E0917000C9
:10032000F0E0E95CFE4F8081823031F08091700016
:100330008F5F8093700022C0E0917000F0E0E85C75
:10034000FE4F9081943018F4923020F487C094309E
:1003500019F484C057E083C0809170008F5F809350
:1003600070005D9BFECF85E608C0809170008F5FB6
:10037000809370005D9BFECF86E68CB980E0089587
:1003800090937800923021F0933009F04CC021C056
:10039000E0917000F0E0E75CFE4F2081E09170009A
:1003A000F0E0E65CFE4F4081942F80E030E0822B4D
:1003B000932B90937A0080937900E0917000F0E0A5
:1003C000E55CFE4F2081E0917000F0E0E45CFE4FC0
:1003D00020C0E0917000F0E0E75CFE4F2081E091EA
:1003E0007000F0E0E65CFE4F4081942F80E030E04A
:1003F000822B932B90937A0080937900E091700088
:10040000F0E0E75CFE4F2081E0917000F0E0E65CF8
:10041000FE4F4081942F80E030E0822B932B90930D
:100420007C0080937B0080917000580F5093700087
:100430009091700080917E00981710F481E00895EB
:10044000109236011092700010927E0010927D0082
:100450005D9BFECF87E08CB981E0089553E0E09189
:1004600070005150F0E0E50FF11D5F5FE95CFE4F59
:100470008081833009F079CF83CF089580916B001C
:1004800090916C005D9BFECF8CB980916B00909138
:100490006C005D9BFECF9CB980916D0090916E00C9
:1004A0005D9BFECF8CB980916D0090916E005D9B3D
:1004B000FECF9CB90895282F5D9BFECF8DE28CB9AD
:1004C000892F82958F708A3010F0895C01C0805D21
:1004D0005D9BFECF8CB99F709A3010F0995C01C083
:1004E000905D5D9BFECF9CB9822F82958F708A3084
:1004F00010F0895C01C0805D5D9BFECF8CB9822FBE
:100500008F708A3010F0895C01C0805D5D9BFECFEA
:100510008CB908955D9BFECF8CB908950895AC9871
:1005200093980895AC9A939A08950F93813019F097
:10053000823051F515C0662311F4A89A01C0A8981D
:10054000442311F4A99A01C0A998222311F4AA9A6C
:1005500001C0AA98002311F4AB9A16C0AB9814C03E
:10056000662311F4949A01C09498442311F4959A47
:1005700001C09598222311F4969A01C09698002301
:1005800011F4979A01C097980F9108950F93282F0F
:1005900070E080E090E06770707080709070FB0198
:1005A0006830710530F5ED5EFF4F0994822F61E0F0
:1005B00040E00FC0822F61E002C0822F60E040E087
:1005C00003C0822F60E041E021E004C0822F60E0A0
:1005D00041E020E000E00CC0822F60E041E006C076
:1005E000822F60E002C0822F61E040E020E001E065
:1005F0009CDF0F910895A8E0B0E0E0E0F3E0A3C134
:100600009C838B837E836D8320906B0030906C0085
:1006100040906D0050906E008215930518F42FEFF6
:100620002A8302C031E03A838D819E81841595052D
:1006300018F49FEF998302C0E1E0E983AB80BC80AE
:10064000A218B308B7FE04C0B094A194B108B39443
:10065000CD80DE80C418D508D7FE04C0D094C194E4
:10066000D108D394810158864F82AC9A939AAC14E6
:10067000BD040CF468C07601EA18FB08FA816F2EFD
:10068000772467FC70944301820C931C2981422ECD
:10069000552447FC50943FC0F7FC18C0E114F10406
:1006A00019F43A81313091F482E0609135016EDFC6
:1006B000809135019981890F80933501EF81F8850B
:1006C000E40DF51DF887EF83EA18FB0881E06091DF
:1006D00071005CDF80917100FA818F0F809371004F
:1006E000060D171D8091340190E005C0E9E9F3E0A3
:1006F0003197F1F701970097C9F7EC0CFD1C909228
:100700006C0080926B002F81388530936E002093AF
:100710006D00860C971C8B819C810817190709F0C6
:10072000BBCF0215130508F072C0E9818E2F9927FF
:1007300087FD90952F813885280F391F30936E00E3
:1007400020936D0064C07501EC18FD083981832E7B
:10075000992487FC90943401640C751C8A81282E9E
:10076000332427FC30943DC0F7FC14C0E114F1049D
:1007700019F49981913071F481E06091710006DF84
:1007800080917100EA818E0F80937100020D131D1C
:10079000EC18FD0882E060913501F8DE80913501AA
:1007A000F9818F0F809335012F813885280D391DF0
:1007B00038872F838091340190E005C0E9E9F3E0A8
:1007C0003197F1F701970097C9F7EA0CFB1C1093DA
:1007D0006C0000936B0070926E0060926D00680C6C
:1007E000791C8F819885ED81FE818E179F0709F016
:1007F000BBCF8415950558F4FA818F2F992787FD73
:100800009095080F191F10936C0000936B00AC9823
:1008100093982896E2E1B3C0EEDE089529E933E02B
:1008200004C0F9013197F1F701970097D1F70895C6
:100830009298C0980895929AC09A0895FC01DB019D
:10084000208131818D919C911197918380832D938B
:100850003C9308958AB188698AB980B5866080BD65
:100860008FE189B910BC089584B38F6184BB85B3CF
:100870008F6085BB81B3886F81BB82B3806F82BB81
:10088000AC98939880E18093340108958A9A0895F2
:1008900083B7856083BF8EB585608EBD85B5876063
:1008A00085BD0895B89AC098D5DFDEDF8A9AF0DF5B
:1008B00081E08093770010927600789494DC8091A8
:1008C00036018823D9F32ADD8130C1F7C09A80919F
:1008D0007800813039F0813040F0823049F0843046
:1008E00069F710C09298C098E9CF929AC09AE6CF63
:1008F00060917B0070917C008091790090917A00EA
:100900007ADEDCCFBBDDDACF991B79E004C0991F1A
:10091000961708F0961B881F7A95C9F78095089559
:1009200097FB092E07260AD077FD04D043D006D0C6
:1009300000201AF4709561957F4F0895F6F7909511
:1009400081959F4F08952F923F924F925F926F92A1
:100950007F928F929F92AF92BF92CF92DF92EF924F
:10096000FF920F931F93CF93DF93CDB7DEB7CA1BD0
:10097000DB0B0FB6F894DEBF0FBECDBF09942A88FB
:10098000398848885F846E847D848C849B84AA84A3
:10099000B984C884DF80EE80FD800C811B81AA8130
:1009A000B981CE0FD11D0FB6F894DEBF0FBECDBFFB
:1009B000ED010895AA1BBB1B51E107C0AA1FBB1F75
:1009C000A617B70710F0A61BB70B881F991F5A95DB
:1009D000A9F780959095BC01CD010895F894FFCFBB
:0209E00038409D
:00000001FF
