:1000000022C03CC03BC03AC039C038C037C036C03F
:1000100035C034C033C087C031C030C02FC02EC0FF
:100020002DC02CC02BC09FC1A2C1A4C1A7C1ABC110
:10003000B0C1B3C1B5C1C5C2CBC2F1C228C345C3AB
:100040008BC3A9C3ACC311241FBECFE5D4E0DEBF70
:10005000CDBF10E0A0E6B0E0E6E7F9E002C0059011
:100060000D92A236B107D9F711E0A2E6B0E001C0C7
:100070001D92AA33B107E1F7DFD37BC4C1CFF89457
:100080009091D0008091CF00981728F09091D000E7
:100090008091CF0005C09091D0008091CF00965AFA
:1000A000981B892F08952091CF0030E0A901480FB7
:1000B000511DCA016AE570E0FED3EAEDF0E0E80FF9
:1000C000F11D80810895F8949091CF00980F90933E
:1000D000CF008091CF006AE5E2D39093CF0078946F
:1000E0000895E091D000F0E0E652FF4F80838091C8
:1000F000D0008F5F8093D0008091D0006AE5CFD38D
:100100009093D0009091D0008091CF00981751F437
:100110008091CF008F5F8093CF008091CF00BFD3BD
:100120009093CF0008951F920F920FB60F92112453
:100130002F933F934F935F936F937F938F939F93EF
:10014000AF93BF93EF93FF935F9B0FC08CB1803150
:1001500041F480913701882321F481E080933701B5
:1001600004C08CB1BEDF10923701FF91EF91BF91B7
:10017000AF919F918F917F916F915F914F913F913F
:100180002F910F900FBE0F901F901895FF920F9315
:100190001F9375DF182F833008F47FC080E083DF62
:1001A0008230B9F481E07FDF082F823029F082307D
:1001B00048F0833021F476C02BE0F22E75C081E048
:1001C00072DF6BC093E0F92E8F2D81506CDF83308E
:1001D00019F081E078DF61C00093D100023021F096
:1001E000033009F056C039C082E05DDF082F83E09C
:1001F0005ADF382F20E010E0202B312B3093D30032
:100200002093D20084E04FDF082F85E04CDF382FA9
:1002100020E010E0202B312B3093D5002093D40028
:1002200086E041DF082F87E03EDF382F20E010E036
:10023000202B312B3093D7002093D60088E033DF7A
:10024000082F89E030DF382F20E010E0202B312B01
:100250003093D9002093D8001CC082E024DF082FFF
:1002600083E021DF382F20E010E0202B312B30936A
:10027000D3002093D20084E016DF082F85E013DF3F
:10028000382F20E010E0202B312B3093D500209325
:10029000D4008F2D18DF81E001C080E01F910F9105
:1002A000FF90089587E0F82E1F15B8F38DCF2091A9
:1002B000CF0030E0A901480F511DCA016AE570E086
:1002C000FAD2EAEDF0E0E80FF11D808108955D9B20
:1002D000FECF8CB908950895AC9893980895AC9A80
:1002E000939A08950F93813019F0823051F515C01B
:1002F000662311F4A89A01C0A898442311F4A99A7E
:1003000001C0A998222311F4AA9A01C0AA98002337
:1003100011F4AB9A16C0AB9814C0662311F4949AEA
:1003200001C09498442311F4959A01C09598222312
:1003300011F4969A01C09698002311F4979A01C07F
:1003400097980F9108950F93282F70E080E090E028
:100350006770707080709070FB016830710530F5C7
:10036000ED5EFF4F0994822F61E040E00FC0822FC5
:1003700061E002C0822F60E040E003C0822F60E0B5
:1003800041E021E004C0822F60E041E020E000E095
:100390000CC0822F60E041E006C0822F60E002C006
:1003A000822F61E040E020E001E09CDF0F910895A2
:1003B000A6E0B0E0EDEDF1E091C22A011901481785
:1003C000590718F42FEF2A8302C0E1E0EA832616CA
:1003D000370618F4FFEFF98302C021E02983720188
:1003E000E81AF90AF7FE04C0F094E194F108F394D6
:1003F0008101061B170B17FF03C0109501951F4FB6
:100400005C016B01AC9A939AE016F1060CF455C0AE
:10041000C8018E199F099E838D839A81892E992404
:1004200087FC909434016A0C7B1C42C0ED81FE81F4
:10043000F7FD17C0EF2B19F4FA81F13091F482E047
:100440006091360180DF809136012981820F80938F
:100450003601C80CD91C8D819E818E199F099E83FF
:100460008D8381E06091CA006EDF8091CA009A811D
:10047000890F8093CA00A80CB91C8091350190E0C7
:1004800005C0E9E9F3E03197F1F701970097C9F763
:10049000ED81FE81E00FF11FFE83ED837092C600B7
:1004A0006092C500D092C800C092C700680C791C49
:1004B000A414B50409F0BACF5CC0C701801B910B2E
:1004C0009E838D839981892E992487FC9094340191
:1004D000660E771EEA81FF27E7FDF095FC83EB832C
:1004E00044C08D819E8197FD19C0892B19F4998193
:1004F0009130A1F481E06091CA0025DF8091CA00AB
:10050000EA818E0F8093CA008B819C81A80EB91E50
:10051000ED81FE81E01BF10BFE83ED8382E06091B3
:10052000360111DF80913601F9818F0F80933601FA
:10053000C80CD91C8091350190E005C0E9E9F3E0D1
:100540003197F1F701970097C9F78D819E818E0D44
:100550009F1D9E838D83B092C600A092C5007092AD
:10056000C8006092C700680C791CC214D30409F05B
:10057000B8CF8091CB009091CC004816590669F411
:100580008091CD009091CE002816390631F410925A
:1005900039015D9BFECF80E48CB9AC989398269688
:1005A000E2E1B8C1EF92FF920F931F938091DA00BE
:1005B000E82FF0E0E830F10508F0F6C0E55EFF4F07
:1005C00009948091DB00809335015D9BFECFEAC0EA
:1005D000109239010091DB004091DC002091DD0098
:1005E0005091DE00E091DF00F090E000A091E1008A
:1005F000E090E200942F80E010E0752F60E030E0A2
:10060000622B732B5F2D40E0F0E04E2B5F2B3E2DD5
:1006100020E0B0E02A2B3B2B802B912B54C081E0B3
:10062000809339012091DB004091DC00942F80E021
:1006300030E0822B932B9093C2008093C1002091D5
:10064000DD004091DE00942F80E030E0822B932B80
:100650009093C4008093C3002091DF004091E0009C
:10066000942F80E030E0822B932B9093CC008093EA
:10067000CB002091E1004091E200942F80E030E037
:10068000822B932B9093CE008093CD008DC010923F
:1006900039018091C5009091C6006091C7007091AA
:1006A000C8002091DB00A091DC00E091DD00B0915A
:1006B000DE005A2F40E030E0422B532B3B2F20E04E
:1006C000F0E02E2B3F2B74DE6FC081E08093390168
:1006D0008091BD009091BE009093C2008093C100B4
:1006E0008091BF009091C0009093C4008093C3009C
:1006F0002091DB004091DC00942F80E030E0822BE1
:10070000932B9093CC008093CB002091DD004091FF
:10071000DE00942F80E030E0822B932B9093CE006C
:100720008093CD002091CB003091CC008091C5000A
:100730009091C60028173907B9F52091CD00309166
:10074000CE008091C7009091C8002817390761F545
:100750005D9BFECF88E327C08091C5009091C600C5
:100760005D9BFECF8CB98091C5009091C6005D9BCA
:10077000FECF9CB98091C7009091C8005D9BFECFD1
:100780008CB98091C7009091C8005D9BFECF9CB949
:100790005D9BFECF07C092985D9BFECF03C0929AEF
:1007A0005D9BFECF80E48CB91F910F91FF90EF907D
:1007B000089529E933E004C0F9013197F1F7019771
:1007C0000097D1F7089592980895929A0895FC01A0
:1007D000DB01208131818D919C91119791838083E0
:1007E0002D933C9308958AB188698AB980B5866053
:1007F00080BD8FE189B910BC089584B38F6184BB3B
:1008000085B38F6085BB81B3886F81BB82B3806FF6
:1008100082BBAC98939880E18093350108958A9AC1
:100820009298089583B7856083BF8EB585608EBD2D
:1008300085B5876085BD0895D6DFDFDF8A9A9298F7
:10084000F1DF10923701789410923901B89AC09A6A
:10085000809139018823D9F3C0988091CB00909181
:10086000CC009093BE008093BD008091CD0090910C
:10087000CE009093C0008093BF008091C100909102
:10088000C2006091C3007091C4004091CB005091B0
:10089000CC002091CD003091CE008ADDD9CF991BBC
:1008A00079E004C0991F961708F0961B881F7A9567
:1008B000C9F78095089597FB092E07260AD077FD82
:1008C00004D043D006D000201AF4709561957F4F74
:1008D0000895F6F7909581959F4F08952F923F9236
:1008E0004F925F926F927F928F929F92AF92BF9240
:1008F000CF92DF92EF92FF920F931F93CF93DF93EC
:10090000CDB7DEB7CA1BDB0B0FB6F894DEBF0FBE48
:10091000CDBF09942A88398848885F846E847D8495
:100920008C849B84AA84B984C884DF80EE80FD8097
:100930000C811B81AA81B981CE0FD11D0FB6F8940D
:10094000DEBF0FBECDBFED010895AA1BBB1B51E159
:1009500007C0AA1FBB1FA617B70710F0A61BB70B2F
:10096000881F991F5A95A9F780959095BC01CD01D4
:060970000895F894FFCF8A
:02097600384007
:00000001FF
