:100000001AC034C033C032C031C030C02FC02EC07F
:100010002DC02CC02BC073C029C028C027C026C04B
:1000200025C024C023C05FC262C264C267C26BC263
:1000300070C273C275C211241FBECFE5D4E0DEBF0B
:10004000CDBF10E0A0E6B0E0EAE3F9E002C0059021
:100050000D92A236B107D9F711E0A2E6B0E001C0D7
:100060001D92AE3EB107E1F7C8D365C4C9CF9091E8
:10007000770080917600981728F090917700809112
:10008000760005C090917700809176009C54981B73
:10009000892F08952091760030E0A901480F511D65
:1000A000CA0164EB70E0E9D3EFE7F0E0E80FF11D7F
:1000B000808108952FB7F89490917600980F9093CF
:1000C00076008091760064EBCCD3909376002FBFBE
:1000D0000895282F8091770090E0019664EB70E0FE
:1000E000CCD3982F80917600891741F0E09177006A
:1000F000F0E0E158FF4F20839093770008951F921E
:100100000F920FB60F9211242F933F934F935F934B
:100110006F937F938F939F93AF93BF93EF93FF93CF
:100120008CB1D7DFFF91EF91BF91AF919F918F91EC
:100130007F916F915F914F913F912F910F900FBEE3
:100140000F901F901895E0917E00F0E0E95CFE4F63
:10015000808380917E008F5F80937E0080917E00FF
:10016000833B20F05D9BFECF85E08CB90895E82F9E
:10017000F0E0E60FF11DE95CFE4F80810895E0910B
:100180007000F0E0E95CFE4F80818230A1F4E091E4
:100190007000F0E0E85CFE4F9081943018F49230EB
:1001A00040F489C0943009F486C0973021F454E0BB
:1001B00083C057E081C0809170008F5F8093700092
:1001C00080E0089590937800933039F1973009F4E6
:1001D0004FC0923009F054C0E0917000F0E0E75C4D
:1001E000FE4F2081E0917000F0E0E65CFE4F408120
:1001F000942F80E030E0822B932B90937A008093B1
:100200007900E0917000F0E0E55CFE4F2081E09124
:100210007000F0E0E45CFE4F20C0E0917000F0E080
:10022000E75CFE4F2081E0917000F0E0E65CFE4F5D
:100230004081942F80E030E0822B932B90937A00C2
:1002400080937900E0917000F0E0E75CFE4F208140
:10025000E0917000F0E0E65CFE4F4081942F80E07A
:1002600030E0822B932B90937C0080937B0008C01E
:10027000E0917000F0E0E75CFE4F808180937900B0
:1002800080917000580F5093700090917000809191
:100290007E00981710F481E00895109236011092B4
:1002A000700010927E0010927D005D9BFECF87E073
:1002B0008CB981E0089553E0E09170005150F0E076
:1002C000E50FF11D5F5FE95CFE4F8081833009F02F
:1002D00072CF78CF089580916B0090916C005D9BF8
:1002E000FECF8CB980916B0090916C005D9BFECF2E
:1002F0009CB980916D0090916E005D9BFECF8CB992
:1003000080916D0090916E005D9BFECF9CB9089529
:10031000FF920F931F93CF93DF939091770080917B
:100320007600981728F0009177008091760005C03C
:1003300000917700809176000C54081B033008F47C
:1003400047C080E0A7DE8230B9F481E0A3DE182F39
:10035000843018F4823030F408C0873030F08730B1
:1003600059F43BC027E0F22E3AC093E0F92E8F2DCE
:10037000815090DE833019F081E09CDE29C010931B
:100380007800153059F0163079F0143029F0C0E0BB
:10039000D0E00F2D10E010C09EDF16C080917D00D0
:1003A0005D9BFECF8CB910C081E0809336010CC0FC
:1003B0008C2F70DEC8DE2196C017D107CCF3809158
:1003C0007D008F5F80937D008F2D74DE81E001C002
:1003D00080E0CDB7DEB7E5E08CC284E0F82E0F15E3
:1003E000B8F3C5CF282F5D9BFECF8DE28CB9892F46
:1003F00082958F708A3010F0895C01C0805D5D9BB2
:10040000FECF8CB99F709A3010F0995C01C0905D5E
:100410005D9BFECF9CB9822F82958F708A3010F041
:10042000895C01C0805D5D9BFECF8CB9822F8F708F
:100430008A3010F0895C01C0805D5D9BFECF8CB975
:1004400008955D9BFECF8CB90895AC98939808955C
:10045000AC9A939A08950F93813019F0823051F538
:1004600015C0662311F4A89A01C0A898442311F47A
:10047000A99A01C0A998222311F4AA9A01C0AA98A6
:10048000002311F4AB9A16C0AB9814C0662311F484
:10049000949A01C09498442311F4959A01C09598B8
:1004A000222311F4969A01C09698002311F4979A8A
:1004B00001C097980F9108950F93282F813019F458
:1004C0008091710002C08091350190E0A0E0B0E021
:1004D00087709070A070B070FC018830910530F585
:1004E000ED5EFF4F0994822F61E040E00FC0822F44
:1004F00061E002C0822F60E040E003C0822F60E034
:1005000041E021E004C0822F60E041E020E000E013
:100510000CC0822F60E041E006C0822F60E002C084
:10052000822F61E040E020E001E095DF0F91089527
:10053000A8E0B0E0EDE9F2E0B3C19C838B837E8359
:100540006D8320906B0030906C0040906D00509057
:100550006E008215930518F42FEF2A8302C081E004
:100560008A83ED81FE81E415F50518F4FFEFF98328
:1005700002C021E02983AB80BC80A218B308B7FE7B
:1005800004C0B094A194B108B394CD80DE80C418A7
:10059000D508D7FE04C0D094C194D108D39471017A
:1005A0008201AC9A939AAC14BD040CF467C0C601E6
:1005B0008A199B0998878F839A81692E772467FC13
:1005C00070944301820C931CE9814E2E552447FC04
:1005D00050943EC08F81988597FD15C0892B19F4E2
:1005E0009A81913081F482E067DF80913501E98161
:1005F0008E0F80933501040D151D8F8198858A1902
:100600009B0998878F8381E057DF809171009A81E1
:10061000890F80937100E60CF71C8091340190E003
:1006200005C0E9E9F3E03197F1F701970097C9F7C1
:10063000EF81F885EC0DFD1DF887EF8390926C003B
:1006400080926B0010936E0000936D00860C971CD7
:100650008B819C81E816F90609F0BCCF82159305C1
:1006600008F071C0E9818E2F992787FD9095080FBA
:10067000191F10936E0000936D0065C0C5018C19A1
:100680009D0998878F839981892E992487FC90945E
:100690003401640C751CEA812E2E332427FC30941F
:1006A0003EC08F81988597FD15C0892B19F49981DB
:1006B000913081F481E000DF80917100EA818E0F3A
:1006C00080937100E20CF31C8F8198858C199D0931
:1006D00098878F8382E0F0DE809135019981890FC0
:1006E00080933501080D191D8091340190E005C0FB
:1006F000E9E9F3E03197F1F701970097C9F7EF8146
:10070000F885EA0DFB1DF887EF83F0926C00E0920C
:100710006B0070926E0060926D00680C791C8D8188
:100720009E810817190709F0BCCF8415950558F468
:10073000EA818E2F992787FD9095E80EF91EF09299
:100740006C00E0926B00AC9893988B819C819093A5
:100750006C0080936B00ED81FE81F0936E00E0935E
:100760006D002896E2E1B8C0E3DE089529E933E0A0
:1007700004C0F9013197F1F701970097D1F7089577
:100780009298C0980895929AC09A089580933401DF
:100790000895FC01DB01208131818D919C9111979D
:1007A000918380832D933C9308958AB188698AB997
:1007B00080B5866080BD8FE189B910BC089584B38F
:1007C0008F6184BB85B38F6085BB81B3886F81BB2C
:1007D00082B3806F82BBAC9A939A80E1809334019C
:1007E00008958A9A089583B7856083BF8EB5856022
:1007F0008EBD85B5876085BD0895B89AC098D5DF50
:10080000DEDF8A9AF0DF81E0809377001092760035
:1008100078947EDD809136018823D9F3B0DC88237B
:10082000C1F380917800813039F0813040F082301E
:1008300049F0873071F710C09298C098EACF929A29
:10084000C09AE7CF60917B0070917C008091790025
:1008500090917A006DDEDDCF809179008093340134
:10086000D8CF991B79E004C0991F961708F0961B02
:10087000881F7A95C9F78095089597FB092E07265A
:100880000AD077FD04D043D006D000201AF470952A
:1008900061957F4F0895F6F7909581959F4F089544
:1008A0002F923F924F925F926F927F928F929F9280
:1008B000AF92BF92CF92DF92EF92FF920F931F936E
:1008C000CF93DF93CDB7DEB7CA1BDB0B0FB6F8941F
:1008D000DEBF0FBECDBF09942A88398848885F845F
:1008E0006E847D848C849B84AA84B984C884DF80D0
:1008F000EE80FD800C811B81AA81B981CE0FD11DB4
:100900000FB6F894DEBF0FBECDBFED010895AA1B50
:10091000BB1B51E107C0AA1FBB1FA617B70710F0EA
:10092000A61BB70B881F991F5A95A9F7809590951C
:0A093000BC01CD010895F894FFCF3B
:02093A00384043
:00000001FF
