:1000000022C03CC03BC03AC039C038C037C036C03F
:1000100035C034C033C0D6C231C030C02FC02EC0AE
:100020002DC02CC02BC077C07AC07CC07FC083C0DD
:1000300088C08BC08DC0CEC1D4C1FAC131C24EC2FE
:1000400094C2B2C2B5C211241FBECFE5D4E0DEBF58
:10005000CDBF10E0A0E6B0E0EEEDF7E002C0059005
:100060000D92A236B107D9F710E0A2E6B0E001C0C8
:100070001D92A938B107E1F712D3AFC3C1CF5D9B81
:10008000FECF8CB908950895AC9893980895AC9AD2
:10009000939A08950F93813019F0823051F515C06D
:1000A000662311F4A89A01C0A898442311F4A99AD0
:1000B00001C0A998222311F4AA9A01C0AA9800238A
:1000C00011F4AB9A16C0AB9814C0662311F4949A3D
:1000D00001C09498442311F4959A01C09598222365
:1000E00011F4969A01C09698002311F4979A01C0D2
:1000F00097980F9108950F93282F70E080E090E07B
:100100006770707080709070FB016830710530F519
:10011000ED5EFF4F0994822F61E040E00FC0822F17
:1001200061E002C0822F60E040E003C0822F60E007
:1001300041E021E004C0822F60E041E020E000E0E7
:100140000CC0822F60E041E006C0822F60E002C058
:10015000822F61E040E020E001E09CDF0F910895F4
:10016000AAE0B0E0E5EBF0E0EDC21A013E832D839A
:100170004817590718F42FEF2C8302C031E03C8355
:10018000ED81FE81E617F70718F4FFEFFB8302C04D
:1001900021E02B835101A81AB90AB7FE04C0B0941C
:1001A000A194B108B394CD80DE80C61AD70AD7FED9
:1001B00004C0D094C194D108D3948C017A87698704
:1001C000AC9A939AAC14BD040CF467C07601EA189B
:1001D000FB082501559447943C81832E992487FC84
:1001E00090943401600E711E1A8252C0F7FC18C040
:1001F000E114F10419F48C81813091F482E0609172
:10020000870079DF809187009B81890F8093870029
:10021000E985FA85E80DF91DFA87E987EA18FB08F0
:1002200081E06091780067DF80917800FC818F0F1A
:1002300080937800080D191D8091860090E005C01C
:10024000E9E9F3E03197F1F701970097C9F7C801A1
:1002500017FF04C088279927801B910B4816590661
:100260004CF42A81222331F45D9BFECF38E33CB964
:1002700081E08A83EC0CFD1C709275006092740022
:10028000E985FA85F0937700E0937600680C791C95
:100290000215130509F0AACF73C045018C189D08FB
:1002A000C60162E070E03BD27B01FB816F2E7724B8
:1002B00067FC709449845A84460C571C19822C811F
:1002C000332727FD309538872F8352C097FC16C0FF
:1002D0008114910419F43B81313081F481E0609103
:1002E000780009DF809178009C81890F80937800E5
:1002F000EF81F8850E0F1F1F8C189D0882E060911A
:100300008700F9DE80918700FB818F0F8093870043
:1003100029853A85260D371D3A87298780918600E1
:1003200090E005C0E9E9F3E03197F1F70197009714
:10033000C9F789859A8597FF03C0909581959F4F4E
:10034000E816F9064CF43981332331F45D9BFECF76
:1003500088E38CB991E099838A0C9B1C10937500FB
:10036000009374005092770040927600460C571C20
:10037000E985FA852D813E81E217F30709F0A6CFC2
:100380008091790090917A002816390679F480914D
:100390007B0090917C00ED81FE81E817F90731F434
:1003A000109288005D9BFECF80E48CB9AC98939846
:1003B0002A96E2E1E3C1EF92FF920F931F9380919F
:1003C0007D00E82FF0E0E830F10508F0F6C0E55ECA
:1003D000FF4F099480917E00809386005D9BFECF45
:1003E000EAC01092880000917E0040917F00209129
:1003F000800050918100E0918200F0908300A091F4
:100400008400E0908500942F80E010E0752F60E07C
:1004100030E0622B732B5F2D40E0F0E04E2B5F2B22
:100420003E2D20E0B0E02A2B3B2B802B912B54C09B
:1004300081E08093880020917E0040917F00942F7E
:1004400080E030E0822B932B9093710080937000BA
:100450002091800040918100942F80E030E0822B39
:10046000932B9093730080937200209182004091AF
:100470008300942F80E030E0822B932B90937A00BE
:10048000809379002091840040918500942F80E032
:1004900030E0822B932B90937C0080937B008DC067
:1004A00010928800809174009091750060917600A0
:1004B0007091770020917E00A0917F00E0918000F4
:1004C000B09181005A2F40E030E0422B532B3B2F5C
:1004D00020E0F0E02E2B3F2B43DE6FC081E08093C5
:1004E000880080916C0090916D00909371008093D2
:1004F000700080916E0090916F00909373008093D4
:10050000720020917E0040917F00942F80E030E0C7
:10051000822B932B90937A00809379002091800016
:1005200040918100942F80E030E0822B932B9093B8
:100530007C0080937B002091790030917A0080913B
:1005400074009091750028173907B9F520917B0048
:1005500030917C00809176009091770028173907C0
:1005600061F55D9BFECF88E327C080917400909178
:1005700075005D9BFECF8CB98091740090917500E1
:100580005D9BFECF9CB980917600909177005D9B3A
:10059000FECF8CB980917600909177005D9BFECF65
:1005A0009CB95D9BFECF07C092985D9BFECF03C0B8
:1005B000929A5D9BFECF80E48CB91F910F91FF90C2
:1005C000EF9008951F920F920FB60F9211242F9360
:1005D0003F934F935F936F937F938F939F93AF93CB
:1005E000BF93EF93FF935F9BFECFE0916B00F0E032
:1005F0008CB1E358FF4F808380916B008F5F8093B5
:100600006B0080916B00893019F4D5DE10926B007D
:10061000FF91EF91BF91AF919F918F917F916F91DA
:100620005F914F913F912F910F900FBE0F901F90B0
:10063000189529E933E004C0F9013197F1F70197E2
:100640000097D1F7089592980895929A0895FC0121
:10065000DB01208131818D919C9111979183808361
:100660002D933C9308958AB188698AB980B58660D4
:1006700080BD8FE189B910BC089584B38F6184BBBC
:1006800085B38F6085BB81B3886F81BB82B3806F78
:1006900082BBAC98939880E1809386000895E3DF55
:1006A000ECDF8A9A929883B7856083BF85B58760AF
:1006B00085BD789410928800B89AC09A809188007D
:1006C0008823D9F3C0988091790090917A00909313
:1006D0006D0080936C0080917B0090917C009093E2
:1006E0006F0080936E008091700090917100609116
:1006F0007200709173004091790050917A002091BE
:100700007B0030917C002CDDD9CF8A9A9298089595
:1007100083B7856083BF85B5876085BD089597FBE6
:10072000092E07260AD077FD04D043D006D000203A
:100730001AF4709561957F4F0895F6F7909581951D
:100740009F4F08952F923F924F925F926F927F92A8
:100750008F929F92AF92BF92CF92DF92EF92FF92D1
:100760000F931F93CF93DF93CDB7DEB7CA1BDB0B7D
:100770000FB6F894DEBF0FBECDBF09942A88398822
:1007800048885F846E847D848C849B84AA84B98429
:10079000C884DF80EE80FD800C811B81AA81B98135
:1007A000CE0FD11D0FB6F894DEBF0FBECDBFED0149
:1007B0000895AA1BBB1B51E107C0AA1FBB1FA617A8
:1007C000B70710F0A61BB70B881F991F5A95A9F7FA
:0E07D00080959095BC01CD010895F894FFCF5F
:0207DE003840A1
:00000001FF
